:020000040000fa
:080000000002040000000000f2
:020000040000fa
:10000800a8030000a8030000a8030000a80300003c
:10001800a8030000a8030000a8030000a80300002c
:10002800a8030000a8030000a80300002a0300009a
:10003800a8030000a8030000a8030000a80300000c
:10004800a8030000a8030000a80300009002000015
:10005800a8030000a8030000a8030000a8030000ec
:10006800a8030000a8030000a8030000a8030000dc
:10007800a8030000a8030000a8030000a8030000cc
:10008800a8030000a8030000a8030000a8030000bc
:10009800a8030000a8030000a8030000a8030000ac
:1000a800a8030000a8030000a8030000a80300009c
:1000b800a8030000a8030000a8030000a80300008c
:1000c800a8030000a8030000a8030000a80300007c
:1000d800a8030000a8030000a8030000a80300006c
:1000e800a8030000a8030000a8030000a80300005c
:1000f800a8030000a8030000a8030000a80300004c
:10010800a8030000a8030000a8030000a80300003b
:10011800a8030000a8030000a8030000a80300002b
:10012800a8030000a8030000a8030000a80300001b
:10013800a8030000a8030000a8030000a80300000b
:10014800a8030000a8030000a8030000a8030000fb
:10015800a8030000a8030000a8030000a8030000eb
:10016800a8030000a8030000a8030000a8030000db
:10017800a8030000a8030000a8030000a8030000cb
:10018800a8030000a8030000a8030000a8030000bb
:10019800a8030000a8030000a8030000a8030000ab
:1001a800a8030000a8030000a8030000a80300009b
:1001b800a8030000a8030000a8030000a80300008b
:1001c800a8030000a8030000a8030000a80300007b
:1001d800a8030000a8030000a8030000a80300006b
:1001e800a8030000a8030000a8030000a80300005b
:0801f800a8030000a8030000a9
:020000040000fa
:10020800a8030000a8030000a8030000a80300003a
:10021800a8030000a8030000a8030000a80300002a
:10022800a8030000a8030000a80300002a03000098
:10023800a8030000a8030000a8030000a80300000a
:10024800a8030000a8030000a80300009002000013
:10025800a8030000a8030000a8030000a8030000ea
:10026800a8030000a8030000a8030000a8030000da
:10027800a8030000a8030000a8030000a8030000ca
:10028800a8030000a8030000a8030000a8030000ba
:10029800a8030000a8030000a8030000a8030000aa
:1002a800a8030000a8030000a8030000a80300009a
:1002b800a8030000a8030000a8030000a80300008a
:1002c800a8030000a8030000a8030000a80300007a
:1002d800a8030000a8030000a8030000a80300006a
:1002e800a8030000a8030000a8030000a80300005a
:1002f800a8030000a8030000a8030000a80300004a
:10030800a8030000a8030000a8030000a803000039
:10031800a8030000a8030000a8030000a803000029
:10032800a8030000a8030000a8030000a803000019
:10033800a8030000a8030000a8030000a803000009
:10034800a8030000a8030000a8030000a8030000f9
:10035800a8030000a8030000a8030000a8030000e9
:10036800a8030000a8030000a8030000a8030000d9
:10037800a8030000a8030000a8030000a8030000c9
:10038800a8030000a8030000a8030000a8030000b9
:10039800a8030000a8030000a8030000a8030000a9
:1003a800a8030000a8030000a8030000a803000099
:1003b800a8030000a8030000a8030000a803000089
:1003c800a8030000a8030000a8030000a803000079
:1003d800a8030000a8030000a8030000a803000069
:1003e800a8030000a8030000a8030000a803000059
:0803f800a8030000a8030000a7
:020000040000fa
:100400002fd720000e7f22000e0188000000000080
:100410000c00070000b624000100200011000700b6
:10042000000020000000e000020032000000020096
:10043000000000006e4a0200000000000040da00e8
:100440000000fe004440a900e01820000000e00089
:100450000300320000002000a00188004440a800f2
:100460000000060091018800800078000000eb0089
:1004700015003700e280400032a0b4009101ba00bc
:10048000e280400032a0b4009102ba00e280400055
:1004900032a0b4000002eb00472bde00f507b200eb
:1004a000602ce10004003a000059eb008301e900f0
:1004b000fdff3e00040037006128e100010032002a
:1004c0000082eb00040007001101ba000200e00006
:1004d000e8ff3a00000006003159ba008301e90044
:1004e0000c0032002159ba008301e90008003200f3
:1004f0000400e00003003a00e280400032a0b400b3
:10050000f5ff370011d9ba008301e900faff3a007c
:100510008100e800e180400032a0b4000000060045
:10052000809fbe00821f78000000fa008560a9004d
:100530001011800062006000e00f500001003200e6
:100540002222a900816b80003011800000407800d9
:10055000a2d5200002814000004978000100e80097
:10056000806b8800806b80008000e900a0d52000af
:100570000080400010407800ea4f50000300320035
:10058000806b8000ea0f500002003a0010c0b300f8
:100590006eedb7000080fa004f0178004f00be00fa
:1005a000004006000200fa000000eb00000f780097
:1005b00005003700a0d520009e0040000040eb0061
:1005c000804878001e0fe800806b80009e00780055
:1005d000808f5000f7ff35000040eb006eedb70054
:1005e0000000eb00806b88000080fa00000006002d
:1005f0000600fa0010079800210798000000eb00a1
:10060000000f78000c0037001e0078009e0090005c
:100610000080400090407800a0d520001e004000df
:100620001040780080cf5000020032000040eb0004
:10063000060037001e0fe8002e0090009e00780094
:10064000808f5000f0ff350010c0b3000080fa002a
:1006500000000600809fbe00821f78000000fa00a4
:100660008460a90068cdbf00e04f50001800320040
:10067000316b800010c0b300a20f2000828f5000a9
:10068000010032000040eb008100e800316b88007f
:10069000e04f50000e003200601680004f00de0078
:1006a000004078000004a200614060000080fb0070
:1006b0004f00dd0062168000f1ff2700810061001d
:1006c00000807000601688000000eb00306b88002e
:1006d0006ccdbf00e04f500019003200516b80001c
:1006e00010c0b300a20f2000828f50000100320022
:1006f0000040eb008100e800516b8800e04f5000a3
:100700000f003200201680004300de0061406000d0
:100710000004a200614060000080fb0061006000f6
:100720004300dd002216800071ff2f008100610070
:1007300000807000201688000000eb00506b8800dd
:100740000080fa004f0178004f00be000040060014
:100750000040da000000fe00800078001104b100c3
:10076000030035009101b10001003c000050a000e1
:1007700000000600800078001106b100030035007b
:100780009101b10001003c000050a10000000600f2
:100790000400fa00000f7800110798000000eb0039
:1007a000000888001e009000100888001e007800d5
:1007b000200888000080fa00000006000800fa0007
:1007c0001007980021079800320798003e0090001b
:1007d000401188001e009000001188002e0090003b
:1007e000101188000200370030118000004f78009f
:1007f00010118000e10060000000eb00808f5000cd
:10080000f9ff3a008560a9000080fa0000000600a8
:100810000400fa00100798001e009000000f7800f6
:1008200000118000e600600060002000808f500012
:1008300021003a000d003700000000001111800077
:1008400000202000808060000000eb00808f5000be
:10085000faff3a001e009000100078002011880076
:100860001e0090000080e800100798001e00900015
:10087000900078000000eb00808f5000eeff3a00ff
:10088000130037000000000011118000002020003c
:10089000808060000000eb00808f5000faff3a007b
:1008a0001e007800104078000000fb002011880036
:1008b0001e0fe80001003700000000001e00780055
:1008c000904078000040eb0080cf5000edff3a00f0
:1008d0000080fa00000006006022b8000602200036
:1008e0000000d0008180d2000482d2008582d20034
:1008f0000000a0000202520083825a00030031006f
:100900000202420083824a000000a1000603e900bf
:10091000f3ff3a0000000600800178000200370073
:1009200081597800040178000202e900e00f5100cb
:10093000fbff3a0000000600800078000041eb0059
:10094000b14f1100fdff3a000080ea000080400036
:100950000000060080017800060037000201e9006f
:100960001142780084597800e04f520006003200ae
:100970008100e800e00f5100f8ff3a000200370064
:100980008059eb00010178008200e900e00f51007e
:08099000fbff3a000000060025
:020000040000fa
:10099800466900006c6500007379000073740000fc
:1009a800656d0000204900006e6900007469000050
:1009b800616c0000697a0000656400002e0a00007e
:1009c80000460000696c0000657300007973000040
:1009d800746500006d20000066610000696c00000d
:1009e80065640000207400006f200000696e00003c
:1009f80069740000696100006c6900007a65000094
:100a08002e0a0000004e00006f2000005344000032
:100a180043610000726400002064000065740000f7
:100a28006563000074650000642e00002043000028
:100a3800616e00006e6f000074200000696e000097
:100a480069740000696100006c6900007a65000043
:100a580020660000696c000065790000737400006e
:100a6800656d00002e0a0000496e000073650000e5
:100a780072740000206300006172000064200000ae
:100a8800616e000064200000736500006e64000061
:100a98002066000073690000207400006f200000c9
:100aa800696e000069740000696100006c690000eb
:100ab8007a650000207300007973000074650000f7
:100ac8006d2e00000a0000004e65000078750000d9
:100ad80073200000436f00006e740000726f000006
:100ae8006c200000426f000061720000642000006a
:100af8004f6e00006c6900006e6500002e2e00002d
:100b08002e0a000046690000726d0000776100003f
:100b180072650000205600006572000073690000cd
:100b28006f6e0000203100002e3000000a560000d1
:100b380065720000626f00007365000020450000c8
:100b48006e610000626c0000656400000a0a000023
:100b580000530000520000005249000047480000be
:100b6800540a0000005300004c0000004c450000ef
:100b7800465400000a000000534e0000004e0000da
:100b88004555000054520000414c00000a00000086
:100b98006673000069000000496e0000766100007d
:100ba8006c69000064200000436f00006d6d000058
:100bb800616e0000640a000000000000009500005b
:100bc800000000000000000001f900000000000023
:100bd800000000000887000004000000000000007a
:100be80009af000000000000010000000a1b00001f
:100bf80000000000010000000cc30000010000001c
:100c0800000000000daf000002000000000000001e
:100c180010ff0000000000000000000011ff0000ad
:100c2800000000000100000012ff000000000000aa
:100c38000100000018ff0000000000000100000093
:100c480019ff0000000000000100000020ff000064
:100c5800000000000000000021ff0000000000006c
:100c68000000000026df0000010000000000000076
:100c78003773000000000000000000003a25000063
:100c880004000000000000003b25000000000000f8
:100c98000000000029ff0000040000000000000020
:0c0ca80017ff000000000000000000002a
:020000040000fa
:100cb4000200fa000000eb00000f78000500370086
:100cc40060c320009e00400010c0b300804878003c
:100cd4001e0fe8001e007800e00f5000f8ff3400fb
:100ce4000040eb0056edb7000040eb004cedb700c0
:100cf4000080eb008080eb00406a8800516a880025
:100d04000080eb008080eb00806a8800916a880094
:100d1400121c070060ce200021020700e04f5000a3
:100d240004003a000040eb003cecb7001000200047
:100d3400010037000000eb000080fa00000006000c
:100d44001400fa00881f780070079800010f9800bb
:100d540022579800335798007e009000401090006e
:100d640060079800b0002000000f78007e0090001b
:100d740080189000701090007e0190001019980067
:100d8400211998000e08900060119000020078006c
:100d94000080ea008180ea00200798006e0090003d
:100da400e00f50000a003a006c00470012c0b30084
:100db400800078007e009000b4070700e00f500028
:100dc40010003a00b0012000000f78000d00370039
:100dd4006e0090006f006000e00f500009003200c8
:100de4006c00470012c0b300800078007e009000c1
:100df400a6070700e00f500002003a00b0012000ef
:100e0400000f78001e007800fb0f5000cd00320068
:100e14001e007800e00f5000c70032006c0047004d
:100e2400800078007e009000f10b07006047980076
:100e34006e409000e24f5000c10032006e409000be
:100e4400e04f5000a9003a007e009000e0109000ae
:100e540041079800ce009000f0032000008060005d
:100e6400400798003e5090000080fb00e00f5000c7
:100e740003003200e10f50002c003200aa003700ba
:100e84004e009000e80f50009e0032000000eb007e
:100e9400000f7800d0c6b300204f98000040eb004c
:100ea400204798001d0037002e4090000080fb0072
:100eb400fe0090007c00400061407800204f9800c4
:100ec4002e4090000080fb008e0890007c004000c3
:100ed40061407800304f98002e4890000080fb005d
:100ee4001cfe0700000478003e4890000080fb00d0
:100ef40018fe0700800f540005003200b0002000e7
:100f0400000f780000000000000000008600370099
:100f14002e4090000040e800204798002e409000aa
:100f2400ea4f5000e0ff36007f003700ce0090000b
:100f34002e00900000806000e00f500073003a0023
:100f44004e009000ef0f5000720032000000eb00e2
:100f5400000f7800d0c6b300204f98000e08900010
:100f6400c0589000a0c2b30080cf50002b003200c4
:100f74000040eb0020479800230037002e409000eb
:100f84000080fb00fe0090007c004000614078007f
:100f9400204f98002e4090000080fb008e089000a7
:100fa4007c00400061407800304f9800be489000bb
:100fb400a0c2b30080cf500017003200be4890009a
:100fc400f0c3b30080cf50000c0032002e489000d4
:100fd4000080fb00dffd0700000478003e4890001d
:100fe4000080fb00dbfd0700800f5400030032008b
:100ff400b0002000000f7800080037002e40900059
:101004000040e800204798002e409000e74f500031
:10101400daff360001003700000000000e089000df
:10102400c0609000a0c2b30080cf50003b003200eb
:101034001e007800e00f50003a003a0080c0b30070
:1010440020479800240037002e4090000080fb00c9
:10105400fe0090007c00400061407800204f980022
:101064002e4090000080fb008e0890007c00400021
:1010740061407800304f9800be489000a0c2b30091
:1010840080cf500001003a0017003700be4890009e
:10109400f0c3b30080cf50000c0032002e48900003
:1010a4000080fb00abfd0700000478003e48900080
:1010b4000080fb00a7fd0700800f540003003200ee
:1010c400b0002000000f7800070037002e40900089
:1010d4000040e800204798002e409000ea4f50005e
:1010e400d9ff3600100037000f0037002e50900053
:1010f400e04f50000c003a000000eb00000f7800b5
:10110400090037000000000007003700000000005d
:101114000500370000000000030037000000000055
:1011240001003700000000006e0090000000e8009d
:101134006007980036ff3700000000000100370008
:10114400000000001e0078004f0478000080fa00c0
:10115400000006001000fa0050079800610798008c
:10116400624f98000000eb00000f78005e009000d2
:1011740090007800110798001e00900030609000e5
:10118400e04f500003003a0070002000000f780088
:101194008e0037005e009000801890007010900060
:1011a4005e01900010199800211998006e009000bb
:1011b40010007800e00f500009003a0012c0b3009c
:1011c400ee0090005e009000b0060700e00f5000b3
:1011d40010003a00b0012000000f78000d00370025
:1011e4006e009000100078006f006000e00f500067
:1011f4000800320012c0b300ee0090005e009000c0
:10120400a2060700e00f500002003a00b0012000df
:10121400000f7800ee0090005e009000f40a0700d2
:10122400404798004e409000e04f500003003200c9
:10123400b0002000000f7800640037005e019000c9
:101244006000b80070019800010998005e009000e9
:10125400a0009000100090005e0190003001980002
:10126400410198005e0090008000eb00510098005e
:101274005e0090008000eb00610098004e409000fa
:10128400e14f500003003a00b0002000000f780046
:101294002e0037005e009000c000900030009000e7
:1012a4000001be001e0090003a10070030079800ad
:1012b4004107980054cdbf00e04f500005003200b4
:1012c4004f120700e04f500002003200900020004f
:1012d4003f0037005e019000726a8800826a8000d5
:1012e400936a80003e009000ce009000800f510071
:1012f400818f5900150032000040eb0056edb70015
:101304001e009000104178008280fb001040900085
:101314000080fb004800dd0001007000000178003f
:101324003e009000ce0090002b1b0700e04f5000c1
:1013340002003a0080002000000f78003e00900078
:10134400ce009000806a8800916a88005e00900058
:1013540030099000b1ff2f0081006100310898002e
:10136400ee48900070c7b30080cf500004003200f4
:10137400ee48900010c6b30080cf50000a003a0037
:101384005e009000b00890000100a00031089800b1
:101394005e00900030099000d1ff2f0081006100b1
:1013a40031089800090037005e0090003009900071
:1013b400e1ff2f0081006100310898005e00900079
:1013c400b00890000110a000310898001e007800b9
:1013d4000080fa00000006001a00fa00200f9800ae
:1013e400320f9800430f98000040eb00004f980024
:1013f4002e08900090007800510798005e0090003d
:10140400206090000080fb00e10f50000a003200d1
:10141400e30f500010003a0080ff2f00f1ff20007e
:101424002007980031079800f0ff2f00f1ff2000fb
:10143400008fbe001000370080ff20000100200054
:101444002007980031079800f0ff2f0001002000ca
:10145400008fbe000800370080ff2f00010020002d
:101464002007980031079800f0ff2f0001002000aa
:10147400008fbe00000000002e0890003001900094
:10148400c001900062079800730798006e019000f5
:10149400fe0190005e009000eb150700000f98001d
:1014a400110f98000e0890009e089000be0f500087
:1014b400ae8f580003003a0080c0b300004f98007c
:1014c400210037005e019000c25190000382fb00ae
:1014d400d25190008381fb00c819dd008481710022
:1014e40003007800e25190008381fb007251900068
:1014f4000281fb004811dd000301710082007800c5
:1015040062014000e08148000e0890009e089000af
:10151400800f5100818f590002003e00a0c0b3002b
:10152400004f98000e0990009e0990002e00900034
:10153400be009000800f5100818f590002003900d5
:10154400c0c3b300004f98002e0890000e0990000d
:101554009e09900032009800430098003e089000d5
:10156400ce08900061005000e0805800300f9800d1
:10157400410f98003e089000ce089000e00f500004
:10158400e08f5800030032000e489000e04f5000f6
:10159400b9ff32000e4890000080fa0000000600f7
:1015a4000600fa00200798000040eb00004f780086
:1015b400ae0090000040eb00b06098002e00900058
:1015c40002802000f10f200081016100904078002a
:1015d400e0c0600083c07000014878004811de005c
:1015e40090409000e0c0600082c0700011409800fc
:1015f4005e1d0700100798001e0090001040780040
:10160400e04f50000500320060c0b300004f780086
:1016140060c0b3003cecb7003a0037001e009000f5
:10162400900078000010200000806000e00f50005f
:10163400250032001e009000100090006101b800e7
:101644002e009000f10f20000102610080589000ec
:10165400e0c0600084c07000015898004812de00a9
:1016640090589000e0c0600084c070001158980049
:10167400f10f200001826100a0589000e0c06000da
:1016840084c07000215898004819de00b0589000ba
:10169400e0c0600082c07000315898001e009000c5
:1016a4009000900000202000808f5000060036003b
:1016b40010c2b300004f780010c2b3003cecb70076
:1016c4001e407800100037002e0090001000070024
:1016d400004f78001e407800e04f500009003a00a7
:1016e4002e00900042010700004f78001e40780051
:1016f400e04f500003003a00ae00900010c0b30069
:10170400b06098001e4078000080fa0000000600d7
:101714000c00fa00500798000040eb00004f7800de
:101724005e009000104178008280fb001040900021
:101734000080fb004800dd0001007000000178001b
:101744006000b800241a0700e14f50000500320081
:1017540080c0b300004f780080c0b3003cecb700f9
:10176400200137005e009000104178008280fb0069
:10177400104090000080fb004800dd000100700074
:10178400200798002e009000e0f8930050c5b300a5
:1017940080cf5000a1003a002e009000f0f8930092
:1017a400a0cab30080cf50009c003a005e009000b5
:1017b400104178008280fb00104090000080fb0004
:1017c4004800dd000100700061032000ab0e07003b
:1017d40061c4b300814f500042003a005e009000a3
:1017e400104178008280fb00104090000080fb00d4
:1017f4004800dd0001007000710320009f0e070007
:1018040011c4b300814f500036003a005e009000ce
:10181400104178008280fb00104090000080fb00a3
:101824004800dd000100700081032000930e0700d2
:1018340041c5b300814f50002a003a005e00900079
:10184400104178008280fb00104090000080fb0073
:101854004800dd000100700091032000870e07009e
:1018640011c3b300814f50001e003a005e00900087
:10187400104178008280fb00104090000080fb0043
:101884004800dd0001007000610220007b0e0700ab
:1018940091c2b300814f500012003a005e009000e4
:1018a400a0409000e0c0600021409800b04090004b
:1018b400e0c0600031409800c0409000e0c060008b
:1018c40041409800d0409000e0c060005140980032
:1018d400de00900020c0b300a06098000040eb0040
:1018e400c10037005e009000104178008280fb0048
:1018f400104090000080fb004800dd0001007000f3
:10190400210520005d0e070061c4b300814f500023
:1019140042003a005e009000104178008280fb0093
:10192400104090000080fb004800dd0001007000c2
:1019340031052000510e070011c4b300814f50003f
:1019440036003a005e009000104178008280fb006f
:10195400104090000080fb004800dd000100700092
:1019640041052000450e070041c5b300814f5000da
:101974002a003a005e009000104178008280fb004b
:10198400104090000080fb004800dd000100700062
:1019940051052000390e070031c3b300814f5000b8
:1019a4001e003a005e009000104178008280fb0027
:1019b400104090000080fb004800dd000100700032
:1019c400210420002d0e070091c2b300814f500066
:1019d40012003a005e009000a0409000e0c0600059
:1019e40021409800b0409000e0c060003140980071
:1019f400c0409000e0c0600041409800d04090009a
:101a0400e0c0600051409800de00900030c0b30098
:101a1400a06098000040eb00730037005e00900067
:101a2400104178008280fb00104090000080fb0091
:101a34004800dd0001007000300798003e0090006f
:101a4400e0f8930050c5b30080cf500005003a0081
:101a54003e009000f0f89300a0cab30080cf50007d
:101a64000500320040c0b3003cecb70040c0b300f6
:101a7400004f78005b0037003e009000e01bb00090
:101a8400100798000040eb00104798004e00370004
:101a94001e009000804890000182fb009048900056
:101aa4008180fb00c808dd0084807000010178009b
:101ab400a04890008180fb00304890000080fb002b
:101ac4004800dd0001007000800178005e00900095
:101ad400f10f200001026100a0409000e0c060000e
:101ae40084c07000214098004812de00b04090008d
:101af400e0c0600084c0700031409800f10f200005
:101b040001826100c0409000e0c0600084c07000a9
:101b1400414098004819de00d0409000e0c06000c9
:101b240082c07000514098001e009000c040900098
:101b3400014f98000e4890000080fb00ee0f50000b
:101b44001b003e00110020000008dd0001052400f8
:101b540081006000e08f50000b003a0001802100fa
:101b640081006000e08f50000c003a0062006000c9
:101b7400e00f50000e003200de00900010c0b300f1
:101b8400a06098000a003700de00900020c0b30077
:101b9400a06098001e40780013003700de0090001b
:101ba40030c0b300a06098001e4078000e003700db
:101bb4001e00900070004000100798001e40900026
:101bc4000040e800104798001e409000e34f50008a
:101bd400afff360050c0b3003cecb70050c0b300b8
:101be400004f78001e4078000080fa0000000600d4
:101bf4001a00fa00889fbe00400f98000040eb00d6
:101c0400404798000000eb00300798000000eb000c
:101c1400400798004e089000104178008280fb0035
:101c2400104090000080fb004800dd0001007000bf
:101c3400000278004e099000a24190008382fb00cc
:101c4400b24190008381fb00c819dd0085817100d9
:101c540003007800c24190008381fb005241900050
:101c64000281fb004811dd0003017100820078004d
:101c740004017800d8180700e14f50000300320037
:101c840080c0b30040479800f90237004e08900026
:101c9400904178008380fb00104090000080fb009e
:101ca4004800dd0001007000500798005e009000bd
:101cb400e0f8930050c5b30080cf500005003a000f
:101cc4005e009000f0f89300a0cab30080cf5000eb
:101cd4000300320030c0b3004047980026023700aa
:101ce4004e089000104178008280fb001040900064
:101cf4000080fb004800dd0001007000e1002000ce
:101d0400660d0700600798004e0890009041780027
:101d14008380fb00104090000080fb004800dd0041
:101d240001007000d1002000540d0700ce0890007f
:101d3400906098004e099000a24190000382fb003d
:101d4400b24190008381fb00c819dd0084817100d9
:101d540003007800c24190008381fb00524190004f
:101d64000281fb004811dd0003017100820078004c
:101d74006e019000030020000001410081814900b0
:101d84004e089000f10f200001026100e040900035
:101d9400e0c0600084c07000614098004812de001a
:101da400f0409000e0c0600084c070007140980072
:101db400f10f20000182610080489000e0c06000c3
:101dc40084c07000014898004819de0090489000d3
:101dd400e0c0600082c07000114898004e08900076
:101de400104178008280fb00104090000080fb00ce
:101df4004800dd0001007000010120001f0d0700f4
:101e0400ce089000806098004e08900090417800c1
:101e14008380fb00104090000080fb004800dd0040
:101e240001007000610120001c0d07006101b80071
:101e34004e089000f10f200001026100c05890008c
:101e4400e0c0600084c07000415898004812de0071
:101e5400d0589000e0c0600084c0700051589800d1
:101e6400f10f200001826100e0589000e0c06000a2
:101e740084c07000615898004819de00f058900042
:101e8400e0c0600082c07000715898004e09900054
:101e9400c25990000382fb00d25990008381fb0059
:101ea400c819dd008481710003007800e2599000b4
:101eb4008381fb00725990000281fb004811dd0010
:101ec4000301710082007800e00f5000e08f580099
:101ed40021003a004e089000104178008280fb00f7
:101ee400104090000080fb004800dd0001007000fd
:101ef40041022000040d07000001be004e089000be
:101f0400f10f200001026100c0589000e0c06000a1
:101f140084c07000415898004812de00d0589000e8
:101f2400e0c0600084c0700051589800f10f200098
:101f340001826100e0589000e0c0600084c070003d
:101f4400615898004819de00f0589000e0c0600025
:101f540082c07000715898004e089000e0409000d4
:101f64000181fb00f04090008180fb00c808dd0087
:101f74008280700001027800804890008180fb001c
:101f8400104890000080fb004800dd000100700054
:101f9400800278004e089000006090000081fb00f1
:101fa400030020004e0b9000c65b90000784fb00ea
:101fb400d65b90008783fb00c83bdd0088837300f9
:101fc40007007800e65b90008783fb00765b900057
:101fd4000683fb004833dd000703730086007800a6
:101fe400009bb90006037800028cb90088037800ce
:101ff400070343000010b800010343008600780083
:1020040004014000858148004e089000f10f200033
:1020140001026100a0489000e0c0600084c070002c
:10202400214898004812de00b0489000e0c06000eb
:1020340084c0700031489800f10f200001826100d3
:10204400c0489000e0c0600084c07000414898001f
:102054004819de00d0489000e0c0600082c07000e3
:10206400514898004e089000904178008380fb000e
:10207400104090000080fb004800dd00010070006b
:1020840011012000850c0700000178004e08900023
:10209400f10f200081016100a0509000e0c06000b9
:1020a40083c07000215098004811de00b0509000a9
:1020b400e0c0600082c07000315098004e0890006b
:1020c400104178008280fb00104090000080fb00eb
:1020d4004800dd0001007000310120006f0c070092
:1020e40001002000008fbe001e00be00e00f500063
:1020f400e08f58000a003a004e08900090417800a2
:102104008380fb00104090000080fb004800dd004d
:1021140001007000010220007b0c0700008fbe004c
:102124004e089000104178008280fb00104090001f
:102134000080fb004800dd0001007000b1002000b9
:10214400560c0700700798007e009000e00f5000c6
:10215400050032007e0090006100600000407800bd
:10216400e04f50000300320010c2b3004047980013
:1021740001013700ce089000215090000081fb003f
:10218400315090000080fb004800dd000200700028
:10219400c500dd007e009000008040008000e90062
:1021a4007e00900080017800110009008380d8002f
:1021b40001002000000f9800110f98006e0090009d
:1021c4006103b8004e089000006090000081fb009d
:1021d400030020004e0a9000c45a90000584fb00be
:1021e400d45a90008582fb00c82add0088827200e0
:1021f40005007800e45a90008582fb00745a900030
:102204000482fb004822dd0005027200840078008d
:10221400009ab90004027800028cb90088027800a0
:10222400050242000010b800010242008400780058
:1022340006014000878148000e0890009e08900027
:1022440002004000838048003e011000ae81180067
:102254000200be00200f9800310f98004e08900035
:10226400106090000080fb00010020000001be000f
:102274002e089000be08900096f907000001be00e9
:102284004e089000f10f200001026100c050900040
:10229400e0c0600084c07000415098004812de0025
:1022a400d0509000e0c0600084c07000515098008d
:1022b400f10f200001826100e0509000e0c0600056
:1022c40084c07000615098004819de00f0509000fe
:1022d400e0c0600082c07000715098004e09900008
:1022e400c25190000382fb00d25190008381fb0015
:1022f400c819dd008481710003007800e251900068
:102304008381fb00725190000281fb004811dd00c3
:10231400030171008200780042ff200003002000c6
:10232400820f5000838f580004003e00ce089000b6
:1023340010c0b300a06098001b0037004e09900045
:10234400c25190000382fb00d25190008381fb00b4
:10235400c819dd008481710003007800e251900007
:102364008381fb00725190000281fb004811dd0063
:10237400030171008200780042ff2f000300200057
:10238400820f5000838f580004003e00ce08900056
:1023940020c0b300a060980003003700ce0890006e
:1023a40030c0b300a06098004e08900020609000f8
:1023b400e34f500036003a004e08900090417800f8
:1023c4008380fb00104090000080fb004800dd008b
:1023d40001007000c1022000cb0b0700c06188001f
:1023e400d16188004e099000a24990000382fb004d
:1023f400b24990008381fb00c819dd00848171001b
:1024040003007800c24990008381fb005249900088
:102414000281fb004811dd00030171008200780095
:102424000e0990009e09900000014100818149003d
:102434004e089000f10f200001026100e048900076
:10244400e0c0600084c07000614898004812de005b
:10245400f0489000e0c0600084c0700071489800ab
:10246400f10f20000182610080509000e0c0600004
:1024740084c07000015098004819de00905090000c
:10248400e0c0600082c07000115098003400370032
:102494006000b800c0618800d16188004e099000d6
:1024a400a24990000382fb00b24990008381fb00a3
:1024b400c819dd008481710003007800c2499000ce
:1024c4008381fb00524990000281fb004811dd002a
:1024d4000301710082007800ce099000235190001e
:1024e4000282fb00335190000281fb004811dd00a1
:1024f400040171004411de000300200000014100ca
:10250400818149004e089000f10f20000102610012
:10251400e0489000e0c0600084c07000614898000a
:102524004812de00f0489000e0c0600084c07000f3
:1025340071489800f10f20000182610080509000e2
:10254400e0c0600084c07000015098004819de00ab
:1025540090509000e0c0600082c07000115098005c
:10256400fe00900000202000808f50000200360002
:1025740010c2b300404798004e08900020609000bd
:10258400e34f50000d0032004e409000e04f5000e9
:10259400b00032005e009000a0c0900090c2b30072
:1025a40080cf5000050032005e009000a0c0900073
:1025b40080c2b30080cf5000a8003a00de00900033
:1025c400315090000081fb00415090000080fb00de
:1025d4004800dd0002007000e00f50003a003a00ad
:1025e4005e00900040709000e04f500036003a00ca
:1025f4005e00900050709000e04f500032003a00ae
:102604005e00900060709000e04f50002e003a0091
:102614005e00900070709000e04f50002a003a0075
:102624005e00900000789000e04f500026003a00d1
:102634005e00900010789000e04f500022003a00b5
:102644005e00900020789000e04f50001e003a0099
:102654005e00900030789000e04f50001a003a007d
:102664005e00900040789000e04f500016003a0061
:102674005e00900050789000e04f500012003a0045
:102684005e00900060789000e04f50000e003a0029
:102694005e00900070789000e04f50000a003a000d
:1026a4005e009000a0c0900090c2b30080cf5000a4
:1026b400070032005e009000a0c0900080c2b3000a
:1026c40080cf50000200320030c0b3004047980071
:1026d4004e409000e04f5000310032003e00900028
:1026e400e00f50002e003a00100020003007980040
:1026f4004e089000104178008280fb00104090004a
:102704000080fb004800dd0001007000000278003a
:102714004e099000a24190008382fb00b2419000d8
:102724008381fb00c819dd008581710003007800f6
:10273400c24190008381fb00524190000281fb0062
:102744004811dd000301710082007800de01900071
:10275400237190008282fb00337190000281fb00a0
:102764004811dd0005017100030020000000410054
:10277400818049000401780017160700e14f5000da
:102784000400320080c0b3003cecb70080c0b3004a
:102794003d0037000040eb00404798002c00370014
:1027a4004e409000e04f50002e0032004e0090004a
:1027b400e00f50002d003a00100020004007980060
:1027c4004e089000904178008380fb0010409000f8
:1027d4000080fb004800dd0001007000000278006a
:1027e4004e099000a24190008382fb00b241900008
:1027f4008381fb00c819dd00858171000300780026
:10280400c24190008381fb00524190000281fb0091
:102814004811dd0003017100820078006600400069
:10282400e080480004017800eb150700e14f5000f8
:102834000400320080c0b3003cecb70080c0b30099
:10284400110037000040eb004047980000000000f2
:1028540016fd3700000000000500370000000000ee
:1028640003003700000000000100370000000000f2
:102874004e409000e04f5000020032004e40900065
:102884003cecb7004e4090004f04be000080fa00bc
:10289400000006000600fa00200798006000b80057
:1028a400008fbe002e009000200890000100200040
:1028b400008fbe001e00be00c000dd00000020002e
:1028c400008fbe002e0090005008900001002000f0
:1028d4001e1f70001e9770001e00be000080fa00cc
:1028e400000006001000fa006007980071079800c5
:1028f4006e00900090007800110798006e00900020
:1029040010199000a019900022079800330798002e
:102914007e009000100078006102b8001e01900053
:10292400825990000383fb00925990008381fb003d
:10293400c819dd008681710003007800a259900057
:102944008381fb00325990000281fb004811dd00b5
:102954000301710082007800cb09dd004500de0030
:1029640000807100c508de000001be000400be0046
:10297400d8f70700104798001e00900020609000d0
:102984000080fb00e10f500022003500e20f5000f0
:102994000d003400e30f50001e003a001e009000aa
:1029a400106090009e4090008180fb000080fb003e
:1029b40000017800110009008280d8008000fd0029
:1029c4001047980013003700c0618000d161800077
:1029d4002e019000be019000800f5100818f59009c
:1029e4000b0032001e009000106090009e4090008a
:1029f4008180fb000080fb00800178001100090049
:102a04008380d8008000fd00104798000100370043
:102a1400000000002e019000be0190001e009000f6
:102a24005c0a070040079800510798001e009000b8
:102a3400104178008280fb00104090000080fb0071
:102a44004800dd0001007000000278001e40900084
:102a54000081fb00030020004e009000de00900087
:102a640002004000838048008041eb0004017800ac
:102a74008b170700e04f500003003a000040eb00c2
:102a8400004f78000200370010c0b300004f7800f8
:102a94001e4078000080fa00000006001400fa00ce
:102aa40070079800010f9800120f98000000eb00c7
:102ab400400798001e089000206090000080fb00f2
:102ac400e10f50000a003200e30f500010003a00fa
:102ad400f0ff2f00f1ff2000200798003107980035
:102ae40080ff2f00f1ff2000008fbe001000370090
:102af400f0ff2f0001002000200798003107980004
:102b040080ff200001002000008fbe000800370075
:102b1400f0ff2f00010020002007980031079800e3
:102b240080ff2f0001002000008fbe000000000085
:102b34007e0090008e089000e00f5000e08f580057
:102b4400070032007e0190008e09900010002000e2
:102b540001002000800f5100818f59003b003a0092
:102b640020002000400798003b0037007e019000c1
:102b74008e0990001e08900033100700500798003b
:102b8400610798005e019000ee0190002e00900015
:102b9400be009000800f5100818f590003003a005d
:102ba4001000200040079800280037005e009000c5
:102bb400ee009000e00f5000e08f58000700320054
:102bc4005e019000ee019000100020000100200042
:102bd400800f5100818f590003003a00200020002b
:102be40040079800190037005e009000ee00900046
:102bf400be0f5000ae8f58000200390020002000a4
:102c0400400798008040eb006022b8007e019000ed
:102c14008e0990001e089000131207000001be00e8
:102c24002e009000be009000800f5100818f59004b
:102c340002003a0010002000400798005e00900057
:102c4400ee00900070079800010f98004e0090006d
:102c5400e00f5000c5ff320011c0b3006022b8007d
:102c64006011b8001e089000ff1107004e0090008c
:102c7400e20f500002003a0010c0b3000100370018
:102c84000040eb000080fa00000006001e00fa007d
:102c9400400f9800510f9800425f98004e08900032
:102ca40090007800610798004e0890007011900021
:102cb4008019900072079800030f98004e08900046
:102cc40010199000a019900032079800430798004b
:102cd4006e019000825990000382fb00925990008b
:102ce4008381fb00c819dd00848171000300780032
:102cf400a25990008381fb00325990000281fb00ad
:102d04004811dd000301710082007800cb09dd0069
:102d14004500de0000807100c508de0020579800e1
:102d24005e089000900078002e5090000080fb0018
:102d340000017800110009008280d800204f98001b
:102d44006e009000206090000080fb00e30f5000b4
:102d54000f003a006e00900010609000ae489000a2
:102d64008180fb000080fb008001780011000900d5
:102d74008380d8008000fd00204f980080ff2f0042
:102d8400f1ff200010079800210798001400370075
:102d94007e0090008e089000e00f5000e08f5800f5
:102da4000a0032006e00900010609000ae4890005f
:102db4008180fb000080fb00000178001100090005
:102dc4008280d8008000fd00204f980080ff2f00f3
:102dd400010020001007980021079800000000005f
:102de4004e589000e04f500005003a005e089000f5
:102df400100078006f006000e00f5000c4003a003b
:102e04002e489000e04f500006003a005e08900003
:102e1400900078002e5090000080fb00808f5000be
:102e2400030031004e589000e04f50003200320051
:102e34007e0090008e089000e00f5000e08f580054
:102e440004003a006000b800300798004107980079
:102e5400290037004e589000e04f50000e00320019
:102e64005e089000100178002e5090008080fb00d6
:102e74006e009000106090000080fb000088b90094
:102e84000000780080017800110009000381d80057
:102e9400304f98001300370010c0b300304f980033
:102ea400100037003e019000ce0190006e009000ab
:102eb400650f070030079800410798003e01900015
:102ec400ce0190001e009000ae009000800f5100d3
:102ed400818f5900070031003e4890000040e9000e
:102ee400304f98003e489000e04f5000edff3a000c
:102ef40001003700000000003e019000ce01900068
:102f04001e009000ae009000800f5100818f590088
:102f14007a0031004e0890003e019000ce019000ee
:102f240012189800231898003e019000ce019000da
:102f34006e00900017090700200f9800310f9800c9
:102f4400c0618000d16180003e019000ce019000fc
:102f5400800f5100818f590020003a002e489000c4
:102f64000081fb00030020002e089000be089000a2
:102f740002014000838148006e029000e44a900000
:102f84000583fb00f44a90008582fb00c82add001b
:102f94008682720005007800845290008582fb00ce
:102fa400145290000482fb004822dd0005027200e6
:102fb40084007800800f5100818f59000700390088
:102fc4006e00900020609000e34f50000300320038
:102fd4000000eb00000f78006200370054cdbf0002
:102fe400e04f500005003200050b0700e04f500091
:102ff400020032000000eb005b0037000000eb0031
:10300400706a88000040eb0056edb7006e00900037
:10301400904178008380fb00104090000080fb000a
:103024004800dd0001007000000278002e48900086
:103034000081fb00030020002e089000be089000d1
:10304400020040008380480004017800e213070076
:10305400e14f5000030032000000eb00000f780045
:10306400210037004e589000e04f50001600320007
:103074006e009000104178008280fb0010409000a8
:103084000080fb004800dd00010070008000780033
:103094005e089000100178002e5090000080fb0024
:1030a40080017800811f7800110009000381d80095
:1030b4000001780001007800cf0078004500dd00b1
:1030c400008f4000080037006e0090001041780027
:1030d4008280fb00104090000080fb004800dd006f
:1030e40001007000000f78000080eb008080eb008e
:1030f400806a8800916a88001a00370010c0b30003
:1031040055edb7000000eb00000f78001500370004
:103114006e009000904178008380fb001040900086
:103124000080fb004800dd00010070008000780092
:103134005e089000100178002e5090000080fb0083
:1031440080017800811f7800110009000381d800f4
:103154000001780001007800cf0078004500dd0010
:10316400008f40001e0078000080fa000000060076
:103174000a00fa0010079800210798006247980097
:10318400430798000000eb00000f78000040eb00bc
:103194003cecb7002e0090008000eb0001087800a2
:1031a400ae0090001e00900058000700e04f500051
:1031b40010003a006e419000ae0090001e00900096
:1031c400d80007000080fb00000f78001e00780084
:1031d400e00f500009003a004e009000e00f50004c
:1031e400060032001e0090000a000700000f78005d
:1031f4000200370040012000000f78001e00780014
:10320400004078003cecb7001e0078000080fa0013
:10321400000006001000fa00700798007e0090007d
:103224004010900060079800680047008000780014
:103234007e0090005f070700000f78001e007800f2
:10324400e00f50002e003a006c0047008000780028
:103254007e00900094030700100798004e00900031
:10326400de009000800078001e0090005108980055
:103274004e019000de01900000002000f1ff2000cc
:1032840002027800030178008001780001007800d0
:10329400030262000000610001002000c000dd00a4
:1032a400000020000001be006120b8000001710090
:1032b4008181710022079800330798002e00900046
:1032c400be0090004008de000100200020079800a6
:1032d40031079800ae0090001e009000210898006d
:1032e4006c004700800078007e0090007dfd0700a0
:1032f400e14f50000200320090002000000f7800df
:103304001e0078000080fa00000006001200fa0097
:1033140070079800010f980010c0b300004f7800a8
:103324000040eb00204798000e08900090007800c1
:10333400210798007e009000801890007010900083
:103344007e019000101998002119980012c0b30052
:103354008e0890007e0090004cfe07003007980015
:103364003e009000e00f50006800320010c0b3002f
:10337400004f9800620037000040eb0010479800af
:103384000e08900010017800220798000041eb001d
:103394008e0890007e0090003cfe070030079800e5
:1033a4003e009000e00f5000030032003e00900009
:1033b40010407800204798000e0890001000780014
:1033c4008000e8000e089000010878003e0090009c
:1033d400e00f50000d0032002e409000fb4f4000e3
:1033e400030032002e409000e04f500007003a00e6
:1033f4001e4090000040e800104798009e40900056
:103404000e48900080cf5000e0ff39003e0090004d
:10341400e00f500034003a007e0090001019900034
:10342400a01990005207980063079800c0618000bb
:10343400d16180005e019000ee019000800f510088
:10344400818f590018003a007e0090001000780027
:1034540020609000e34f50000300320020c0b3000e
:10346400004f7800260037007e0090005e01900037
:10347400ee019000320098004300980011c0b300a0
:103484007e0090008c000700f54f500003003a00c6
:1034940020c0b300004f7800190037000040eb0053
:1034a400004f7800160037007e0090005e01900007
:1034b400ee019000320098004300980011c0b30060
:1034c4007e0090007c000700f54f500003003a0096
:1034d40020c0b300004f7800090037000040eb0023
:1034e400004f7800060037009e4090000e48900080
:1034f40080cf500002003a000040eb00004f7800fb
:103504001e407800e14f50009bff32000e089000ef
:10351400ae019000030878001e4078000080fa0095
:10352400000006000a00fa002007980031079800fe
:10353400024f98000040eb00004f78002e009000ee
:1035440080189000701090002e01900010199800bf
:103554002119980012c0b300be0090002e00900004
:10356400cafd0700100798001e009000e00f5000ed
:1035740002003a00b0c1b3004d0037002e009000a5
:10358400fc0040001e009000b2002000f0f4070090
:103594000e489000f24f500004003a009e00900044
:1035a40000c1b300b0489800030037009e009000ab
:1035b40000c2b300b04898009e0090000040eb00a9
:1035c400c04898001e0090008000eb00210898007d
:1035d4001e0090008000eb00510898001e0190002e
:1035e4006000b80060099800710998009e0090007e
:1035f40020cbb300d04898001e00900081272700fc
:10360400710098001e009000012b2300010898000f
:103614001e009000012b2300110898001e0090004a
:1036240091272700310898001e009000012b2300e9
:10363400410898001e009000f00890006008900077
:103644002e01900010099800210998001e00900096
:10365400f00090002e009000410898001e00900099
:10366400800890002e009000510898001e009000e1
:10367400304890008080fb002e009000611098007c
:103684003e009000900078002e00900041109800b9
:10369400be0090002e00900092fc0700e14f500005
:1036a4000200320090c0b300004f78001e40780042
:1036b4000080fa00000006000e00fa00500798008f
:1036c400414f98005e009000100f78005e0090005b
:1036d40030019000c0019000120798002307980061
:1036e4005e0090004400070010079800210798002e
:1036f4001e009000ae009000e00f5000e08f5800d4
:1037040002003a0050c1b300390037001e007800af
:1037140020609000e14f500008003a008040eb0028
:1037240084ff2000050020001e019000ae019000df
:103734001e0078004c0f0700130037001e007800ad
:1037440020609000e24f500008003a008040eb00f7
:1037540084ff2f00050020001e019000ae019000a0
:103764001e007800400f0700070037008040eb0080
:1037740084ff2f00f5ff20001e019000ae01900091
:103784001e007800380f07005e00900030019000a2
:10379400c001900032079800430798008040eb0076
:1037a4001e029000ae0290003e019000ce019000f7
:1037b4001e0078002c0f07005e0090001e01900090
:1037c400ae01900032009800430098004e489000eb
:1037d400e14f500005003a001e019000ae01900038
:1037e4001e0078004b060700010037000040eb0084
:1037f4000080fa00000006001800fa00300f98005c
:103804006000b80060079800710798003e089000b7
:1038140090007800010f98003e089000300190005d
:10382400c0019000028fbe000e089000206090003e
:103834000080fb00e10f50000b003200e30f50004a
:1038440012003a0070ff2f00f1ff200020079800bb
:1038540031079800f0ff2f00f1ff20004007980087
:10386400510798001200370070ff2000010020006b
:103874002007980031079800f0ff2f000100200076
:1038840040079800510798000900370070ff2f0087
:10389400010020002007980031079800f0ff2f0056
:1038a4000100200040079800510798000000000024
:1038b4001e01be001000200001002000800f5100f6
:1038c400818f590003003e002000200001002000e9
:1038d400008fbe001e00be00100f9800210f98003c
:1038e4001e01be000e089000d70c07003f003700f1
:1038f4001e01be000e089000d30c0700600798005c
:10390400710798006e019000fe0190004e00900037
:10391400de009000800f5100818f590003003a00af
:103924006000b800008fbe00360037006e009000c3
:10393400fe009000e00f5000e08f5800300032008d
:1039440012002000030020001e0f41005e97490072
:103954006e019000fe0190002e009000be009000c9
:10396400800f5100818f5900140032000e0990001d
:10397400c25190000382fb00d25190008381fb006e
:10398400c819dd008481710003007800e2519000c1
:103994008381fb00725190000281fb004811dd001d
:1039a400030171008200780062004000e08048005a
:1039b400be0f5000ae8f580003003e0020002000d0
:1039c40001002000008fbe001e089000ae08900089
:1039d4001e01be00800f5100818f590003003a0080
:1039e4006000b800008fbe00060037001e00be0055
:1039f400e00f5000e08f5800bdff3a00010037008f
:103a0400000000001e00be000080fa000000060056
:103a14000a00fa004007980080042000100798006c
:103a24000040eb003cecb7004e00900040109000ca
:103a3400300798004e00900030089000610060004c
:103a4400e00f50004d00320054cdbf00e04f500055
:103a5400070032006a080700e04f500004003200fb
:103a640090c0b3003cecb7000080eb006600370068
:103a74004e0090001000780011c0b3006022b8001e
:103a84006011b800780e07006000b800406a880032
:103a9400516a88004e009000c000900030009000f1
:103aa4004e019000120278000001be00040078006c
:103ab400650c070066004700800078004e00900007
:103ac40079010700200798002e009000e00f5000b5
:103ad40006003a00b0c1b3003cecb7000080eb0034
:103ae400100798001e009000470037002e00900039
:103af400470007004e009000a008900010089000b6
:103b04002e01900060099800710998004e00900001
:103b14006010900000407800ae009000b04898001b
:103b240066004700800078004e0090006dfb07009f
:103b3400e04f500008003200660047008000780023
:103b44004e00900058010700200798000000eb0089
:103b5400100798000400370090c0b3003cecb70095
:103b64000080eb00100798004e0090003009900090
:103b7400e1ff2f0081006100310898004e009000a1
:103b840030099000d1ff2f008100610031089800b6
:103b94000000eb00000f78000f0037009e00780053
:103ba400600320000088b9008000780000c0200075
:103bb400808040004e009000808f500005003a0045
:103bc40060c320009e00400010c0b300804878000d
:103bd400040037001e0fe8001e007800e00f5000bc
:103be400eeff32000000eb00400798009e009000ba
:103bf40080042000808f500002003a000000eb0097
:103c0400100798001e0090000080fa0000000600d3
:103c14000800fa00300798003e0090003008900039
:103c2400004078007f4f60003e009000b008900094
:103c3400007e2000008060004500de0010479800f0
:103c44003e009000300890004b00de0020479800b2
:103c54003e00900040089000004078007f406000e3
:103c6400304798003e009000c0089000001e2000dd
:103c7400008060004500de00404798003e00900050
:103c8400400890004900de00504798001e4078002c
:103c9400fc4f500002003e001e4fe8002a0037008f
:103ca4000040eb00004f78009e409000a0c3b3009a
:103cb40080cf500004003e001e4090000040e80009
:103cc40010479800200037000040eb001047980090
:103cd4002e409000f64f500004003e002e4090000d
:103ce4000040e80020479800170037000040eb0030
:103cf400204798003e409000fd4f500004003e00d5
:103d04003e4090000040e800304798000e00370025
:103d140010c0b300304798004e409000eb4f500065
:103d240004003e004e4090000040e80040479800e8
:103d34000500370010c0b300404798005e40900073
:103d44000040e800504798001e4078008080fb0047
:103d54003e009000310898003e009000b0089000aa
:103d64001e4090000080fb004500dd008080700054
:103d74003e009000310898003e009000b00890008a
:103d84002e4090000080fb004b00dd00808070001e
:103d94003e009000310898003e4090008080fb0077
:103da4003e009000410898003e009000c00890003a
:103db4004e4090000080fb004500dd0080807000d4
:103dc4003e009000410898003e009000c00890001a
:103dd4005e4090000080fb004900dd0080807000a0
:103de4003e009000410898000080fa0000000600a0
:103df4000c00fa0040079800510798000040eb00bf
:103e0400404798005e009000100078006f0060004a
:103e1400e00f500010003a005e009000100078009f
:103e2400e00f50000c0032004e009000801890000b
:103e3400701090004e0190001019980021199800fc
:103e440012c0b300de0090004e0090008ffb07000c
:103e5400000f7800050037000041eb00de00900001
:103e64004e00900089fb0700000f78001e007800c8
:103e7400e00f500003003a0020c0b3003047980020
:103e8400860037001e0078001040780050479800e4
:103e94005e409000fb4f400003003a0010c0b300a6
:103ea400304798007d0037005e409000e04f50009e
:103eb40003003a0020c0b300304798007700370071
:103ec4001e007800b0489000514798000040eb0075
:103ed40020479800150037002e4090000080fb001a
:103ee4009e00780061407800604798006e40900022
:103ef4000080fb001ef20700604798004e409000cf
:103f04008080fb006e4090004e01900081004100d3
:103f1400c05898004e4090000040e8004047980088
:103f24002e4090000040e800204798002e4090006a
:103f3400e74f5000e8ff36001e007800b0489000bc
:103f4400514798001e007800004890006047980090
:103f54000040eb0020479800160037002e409000e8
:103f64000080fb009e0078006800400061407800fb
:103f7400604798006e4090000080fb00fcf1070051
:103f8400604798004e4090008080fb006e40900097
:103f94004e01900081004100c05898004e409000ae
:103fa4000040e800404798002e4090000040e800a0
:103fb400204798002e409000e24f5000e7ff360063
:103fc4005e009000900078004e0090004110980030
:103fd4001e00780010407800504798005e40900022
:103fe400fb4f400003003a0010c0b3003047980074
:103ff400020037000040eb00304798001e007800b4
:10400400f0089000600890004e019000100998009c
:10401400210998001e0078001efa07004e01900046
:1040240010019800210198001e007800b04890000b
:10403400514798005e4090008080fb004e00900045
:10404400611098005e4090000080fb0070006000ea
:10405400e00f5000090032001e007800f0009000cc
:104064004e009000410898001e00780080089000df
:104074004e00900051089800080037001e00780098
:10408400b00890004e009000410898001e0078008f
:10409400c00890004e009000510898003e409000e7
:1040a4000080fa00000006000800fa0020079800cb
:1040b400310798002e009000801890007010900036
:1040c4002e019000101998002119980012c0b30015
:1040d400be0090002e009000ecfa0700000f78005c
:1040e4001e007800e00f500002003a000000eb00d0
:1040f4002b0037001e0078001040780020479800fd
:104104002e409000e04f500002003a000000eb0007
:10411400000f78001e007800e00f50001f003200ee
:104124002e409000fb4f400003003a000000eb00db
:10413400000f7800190037001e007800b048900086
:1041440021479800120037003e00900010007800cc
:104154008000e8003e009000010878000041eb0078
:10416400be0090002e009000c8fa0700000f7800ef
:104174001e007800e00f500002003a000000eb003f
:10418400070037001e007800b048900021479800cf
:104194002e409000ef4f5000ebff32001e007800dd
:1041a4000080fa00000006001600fa00000f9800d4
:1041b400110f9800425798000000eb00000f7800a0
:1041c4006000b80010079800210798001000200034
:1041d400400798000e08900090007800510798005e
:1041e40010c0b3006047980010c0b3003cecb700a7
:1041f400380037000e08900080189000701090006e
:104204000e099000101998002119980012c0b300eb
:104214009e0890000e0890009cfa07006007980022
:104224006e009000e00f500002003a00b001200040
:104234004b0037006e00900010407800604f9800eb
:104244006e009000e00f5000060032006e489000af
:10425400e04f5000030032006e489000fb4f4000d6
:1042640003003a00b0002000000f7800230037005c
:10427400ee00900050ceb300804878009e08900075
:104284000e08900097f90700e04f500003003a0031
:1042940010002000000f7800180037004e00900036
:1042a400e00f5000060032006e00900079f907001c
:1042b40010079800210798000000eb0040079800c1
:1042c4001e089000100078008000e9001e0890008d
:1042d400010878006e4090000080fb000000ea00b6
:1042e4004f00de0000407800ee4090008140e9007d
:1042f40061479800e04f5000beff3a001e0078006e
:10430400e00f500015003a00c0618000d1618000c8
:104314001e019000ae019000800f5100818f590062
:104324000b0032004e509000e04f50000800320065
:104334005e0190001e009000ae009000d7f90700c7
:104344000080fb000000e9004f00de00000f780051
:104354001e007800004078003cecb7001e00780096
:104364000080fa00000006007600fa00103f980072
:10437400213f98000040eb003cecb70075110700aa
:10438400e04f50000400320080c1b3003cecb700a1
:104394000080eb006600370066004700ae389000ee
:1043a400e9020700660047000041eb008000780046
:1043b4001e38900062070700e04f500004003a00e6
:1043c40020c1b3003cecb7000080eb00580037007c
:1043d4000000eb0070179800c06a800080189000fd
:1043e40070109000201f9800311f9800c06a800050
:1043f400a018900010189000401f9800511f9800ba
:10440400e6004700c00320000e004000ce02070073
:10441400e6004700c00320000e0040008041eb008e
:1044240012c0b30046f20700eb0f50003b003a0005
:104434002e38900040109000200798006400470038
:10444400800078002e38900017ff070010079800ae
:104454000040eb00004f7800230037001e40780036
:104464008080fb001e4178000280fb007c0040003d
:1044740000004700604090002e3990008100410008
:10448400c05898001e407800e74f50000a003e00d4
:104494001e4078008080fb001e4178000280fb00f3
:1044a4007c00400000004700604090001e01900026
:1044b40000f178000b0037009e4078000180fb007b
:1044c400e80050001e4178000280fb007c004000a0
:1044d40000004700604090001e01900081004100f0
:1044e400804898001e4fe8001e407800ea4f5000b4
:1044f400daff360064004700800078002e38900010
:10450400f8f80700e04f500008003a0090c0b300ec
:104514003cecb7000080eb000500370010c1b3008d
:104524003cecb7000080eb00010037000000eb001a
:104534000080fa00000006000e00fa005007980000
:10454400610798006e009000104078006047980062
:1045540000110700e04f50000c003200ee409000c4
:1045640020c7b30080cf500008003200ee40900016
:1045740020c5b30080cf50000400320080c1b300d6
:104584003cecb7000000eb00ed0137000000eb004d
:10459400000f78000000eb001007980015003700aa
:1045a4009e00900060c3200000804000104078000e
:1045b400e04f50000c0032009e00900060c32000c9
:1045c400808040000040eb00804878009e0090000e
:1045d400600320000088b9008000780000c020003b
:1045e400008f4000060037001e0090000000e80025
:1045f400100798001e009000e00f5000e8ff340000
:104604001e007800e00f500004003a0000c2b3001e
:104614003cecb7000000eb00c90137000041eb009f
:104624009e0078005e009000c5060700e04f500031
:1046340009003a009e00900060c320008080400082
:1046440010c0b3008048780020c1b3003cecb70030
:104654000000eb00ba0137001e00780061ce200094
:10466400010878001e0178006000b800100198006d
:10467400210198001e0178006000b8003001980004
:10468400410198001e0078008000eb004110980062
:104694001e0078000102200061109800c0618000b3
:1046a400d16180001e0178007011980001199800f2
:1046b400c0618000d16180001e017800101998004b
:1046c400211998009e007800a0c720001e02070050
:1046d4008041eb0012c0b300a1c720001e00780087
:1046e40097f10700e00f500017013a006e40900068
:1046f4000080fb006101b900f0fb2f00f1ff2f00e7
:104704000200400083804800620320000300200070
:10471400820f5000838f580006013e0000600100a4
:104724006e00370003013700020137000101370032
:1047340000013700ff003700fe003700fd0037009e
:10474400fc003700fb003700fa003700f90037009f
:10475400f8003700f7003700f6003700f50037009f
:10476400f4003700d1003700f2003700f1003700c1
:10477400f0003700ef00370020003700ed0037006d
:10478400ec003700eb003700ea003700e90037009f
:10479400e8003700e7003700e6003700e50037009f
:1047a4004e003700e3003700e2003700e100370035
:1047b400e0003700df003700de003700dd0037009f
:1047c400dc003700db003700da003700d90037009f
:1047d400d8003700d7003700d6003700d50037009f
:1047e400d4003700b1003700d2003700d1003700c1
:1047f400d0003700cf003700000037001e007800db
:1048040040109000400798006800470012c0b300b1
:10481400800078001e00780063fe070020079800df
:104824002e009000e00f500012013a00680047008b
:10483400130020000041eb00800078001e00780087
:104844004bfa0700200798002e009000e00f50005c
:104854000a013a006800470072c7b300800078007c
:104864001e0078003bf20700200798001e00780025
:104874006010900070006000e00f500004003200ef
:10488400f0c1b3003cecb700f00f20002007980003
:104894002e009000e00f5000fa003a0021002000a2
:1048a4006011b8001e007800a807070020079800d0
:1048b4006e0090000000e80090407800b0c2b300a1
:1048c40080cf5000f1003a001e007800b00890003c
:1048d4000110a00031089800030137001e00780081
:1048e400a008900010089000e00f5000e08f5800de
:1048f400310032001e0078004010900040079800fc
:104904006800470072c7b300800078001e0078007a
:1049140010f20700200798001e0078006010900035
:1049240070006000e00f500004003200f0c1b300da
:104934003cecb700f00f2000200798002e009000f8
:10494400e00f5000d3003a00210020006011b800ad
:104954001e0078007d070700200798002e009000b5
:10496400e00f500003003200a0c1b3003cecb700dc
:10497400060037001e007800c00090003000900050
:104984000001be0060ce2000af0807006e0090005a
:104994000000e80090407800b0c2b30080cf50001f
:1049a400be003a001e007800b00890000110a0007c
:1049b40031089800cc0037001e00780040109000a9
:1049c400400798006800470012c0b30080007800d8
:1049d4001e007800f4fd0700200798002e009000c8
:1049e400e00f5000af003a006800470013002000b9
:1049f4000041eb00800078001e007800dcf907001d
:104a0400200798002e009000e00f5000a7003a0005
:104a14006800470072c7b300800078001e00780069
:104a2400ccf10700200798001e0078006010900069
:104a340070006000e00f500004003200f0c1b300c9
:104a44003cecb700f00f2000200798002e009000e7
:104a5400e00f500097003a00210020006011b800d8
:104a64001e00780039070700200798002e009000e8
:104a7400e00f500002003200a0c1b3003cecb700cc
:104a84006e0090000000e80090407800b0c2b300cf
:104a940080cf500089003a001e007800b0089000d2
:104aa4000110a000310898008f0037001e00780024
:104ab40040109000400798006800470022c7b300e8
:104ac400800078001e007800a2f1070020079800fb
:104ad4002e009000e00f50007a003a006e00900023
:104ae4000000e80090407800b0c2b30080cf5000ce
:104af40076003a001e007800c0009000300090005c
:104b04000001be0060ce20004f0807001e007800a0
:104b14006010900070006000e00f50006d003a00db
:104b24001e007800b00890000100a0003108980031
:104b34006d003700f0c1b3003cecb700f00f20006b
:104b44002007980068003700a1c720001e007800e5
:104b5400fd000700ee40900070c7b30080cf500006
:104b64000c003200ee40900070c5b30080cf5000be
:104b740008003200ee40900010c6b30080cf500011
:104b840004003200ee40900010c4b30080cf500007
:104b940033003a000000eb0040079800680047002b
:104ba400130020000041eb00800078001e00780014
:104bb4006ff90700200798002e009000e00f5000c6
:104bc40049003a006800470072c7b30080007800cb
:104bd4001e0078005ff10700200798001e0078008f
:104be4006010900070006000e00f5000040032007c
:104bf400f0c1b3003cecb700f00f20002007980090
:104c04002e009000e00f500034003a0021002000f4
:104c14006011b8001e007800cc0607002007980039
:104c24002e009000e00f500002003200a0c1b3003b
:104c34003cecb7006e0090000000e8009040780063
:104c4400b0c2b30080cf500026003a001e007800a6
:104c5400b00890000110a00031089800220037002d
:104c6400b000200020079800b0c0b3003cecb700af
:104c74001d003700000000001b003700000000008a
:104c84001900370000000000170037000000000082
:104c9400150037000000000013003700000000007a
:104ca40011003700000000000f0037000000000072
:104cb4000d003700000000000b003700000000006a
:104cc4000900370000000000070037000000000062
:104cd400050037000000000003003700000000005a
:104ce40001003700000000001a0f0700e04f5000d9
:104cf400050032001e00780030099000e1ff2f000b
:104d040081006100310898002e009000e00f5000ef
:104d1400080032009e00900060c3200080804000a4
:104d240010c0b300804878000000eb00000f78004a
:104d3400020037000040eb003cecb7001e00780096
:104d44000080fa00000006000200fa00000f78005c
:104d54000040eb003cecb7001e0078008008900097
:104d6400700090000080fa00000006000400fa00c1
:104d74001007980040c42000000f78000040eb00aa
:104d84003cecb700f30e0700e04f50000400320083
:104d940080c1b3003cecb7000080eb004900370051
:104da4000041eb009e0078001e009000e404070020
:104db400e04f500004003a0020c1b3003cecb700bf
:104dc4000080eb003f0037001e00780061ce200019
:104dd400010878001e0178006000b80010019800f6
:104de400210198001e0178006000b800300198008d
:104df400410198001e0078008000eb0041109800eb
:104e04001e0078000102200061109800c06180003b
:104e1400d16180001e01780070119800011998007a
:104e2400c0618000d16180001e01780010199800d3
:104e3400211998009e007800a0c7200042000700b6
:104e44008041eb0012c0b300a1c720001e0078000f
:104e5400bbef0700e00f500004003200b0c0b30005
:104e64003cecb7000080eb00160037001e00780011
:104e74006010900070006000e00f500004003200e9
:104e840030c1b3003cecb7000080eb000d003700ec
:104e9400810220001e80400012c0b3008000780010
:104ea4001e007800c0fc0700e00f500002003a002a
:104eb4000000eb000300370010c0b3003cecb70067
:104ec4000080eb000080fa00000006000200fa00f7
:104ed400000f780054cdbf00e04f500001003200b5
:104ee400470307001e0178006000b80070019800b5
:104ef400010998001e0078008000eb006100980012
:104f04001e0078008000eb00510098001e0078001d
:104f1400a0009000100090001e017800300198005d
:104f2400410198000000eb00706a88000080fa00dc
:104f3400000006000000fa003cccbf000080fb002b
:104f44000080fa00000006000c00fa0040079800f8
:104f5400510798004e009000100798005e009000e2
:104f64002007980060032000300798000000eb0041
:104f7400000f7800090037001e0078009e009000a2
:104f8400808040001e0078002e0190000000410047
:104f940010407800804878001e0fe8003e00900022
:104fa4009e007800808f5000f3ff35000080fa00e7
:104fb400000006000800fa00200798003107980056
:104fc4000000eb00000f78002e00900090007800a5
:104fd400110798002e00900007fa07003e01900088
:104fe4000089be003e0090001000be00e00f50009b
:104ff400e08f580003003a0050012000000f7800b1
:10500400410037001e00900020609000e14f5000e6
:1050140010003a003e0090001001be008040eb00fa
:1050240084ff2000050020001e0090000e090700e8
:105034000001be00f0ff2f0001002000800f51008e
:10504400818f590026003a0090002000000f78005c
:10505400230037001e00900020609000e24f5000b3
:1050640010003a003e0090001001be008040eb00aa
:1050740084ff2f00050020001e009000fa0807009e
:105084000001be00f0ff2f0001002000800f51003e
:10509400818f590012003a0090002000000f780020
:1050a4000f0037003e0090001001be008040eb006e
:1050b40084ff2f00f5ff20001e009000ea0807007f
:1050c4000001be00f0ff2f00f1ff2000800f51000f
:1050d400818f590002003a0090002000000f7800f0
:1050e4001e007800e00f500007003a003e009000d8
:1050f4001000be000001be001e0090000500070065
:105104000080fb00000f78001e0078000080fa0089
:10511400000006000e00fa004007980052079800ad
:10512400630798000040eb00604798005e01900020
:10513400ee0190004e0090009600070010079800c2
:105144002107980054cdbf00e04f50000500320005
:10515400ab020700e04f50000200320090c0b300e1
:10516400440037000000eb00706a880056cdbf0091
:10517400e04f50001c003a004e019000825990000c
:105184000382fb00925990008381fb00c819dd0063
:105194008481710003007800a25990008381fb0090
:1051a400325990000281fb004811dd0003017100b7
:1051b40082007800800078004e00900090417800d2
:1051c4000381fb00104090000080fb004800dd00dc
:1051d40002007000010178008000eb00cded0700b3
:1051e40010c0b30056edb7000040eb00004f78004c
:1051f400180037004e009000104178008280fb00b8
:10520400104090000080fb004800dd0001007000a9
:10521400000278001e009000ae0090001e01900075
:10522400ae01900061014100e0814900120798003d
:10523400230798008041eb0004017800980d0700d3
:10524400e14f50000200320090c0b3006047980064
:105254001e4fe8004e009000106090009e4f5000da
:10526400030036006e409000e04f5000e1ff320032
:105274006e4090000080fa00000006000400fa006e
:10528400000f7800110798001e0090001e004000d7
:10529400104078000080fa00000006000800fa00c0
:1052a4002007980031079800ae0090003e0090005f
:1052b40000804000104f78003e0090000000e8009d
:1052c400ae009000008040009040780011479800a4
:1052d4001e4090000080fb00100798001e00900004
:1052e4004800dd00100798009e4078000180fb0014
:1052f4009e00900000807000100798001e0090002f
:105304000080fa00000006000c00fa004007980034
:1053140051079800de0090004e009000dfff070068
:10532400000f78005e0090000080e80080007800a4
:105334004e009000d9ff0700100798001e0090004f
:105344000100200020079800310798002e009000eb
:10535400be009000c000dd0000002000200798007f
:10536400310798001e007800010020002e019000f3
:10537400be01900000007100818071002007980038
:10538400310798002e009000be0090000080fa00c3
:10539400000006000a00fa0020079800320798006f
:1053a400430798002e009000206090000080fb00ce
:1053b400e30f500022003a003e009000ce0090001f
:1053c40062015000e08158002e00900010609000af
:1053d4000080fb0001002000009ab900040278005c
:1053e400028bb90086027800050242000010b80062
:1053f40001024200840078002e029000e44a9000ea
:105404000583fb00f44a90008582fb00c82add0076
:105414008682720005017800845290008582fb0028
:10542400145290000482fb004822dd000502720041
:1054340084017800021f40000397480042003700af
:105444003e009000ce009000e00f5000e08f580026
:10545400070032003e019000ce01900010002000b1
:1054640001002000800f5100818f590014003a0080
:105474002e019000a24990000382fb00b2499000e3
:105484008381fb00c819dd0084817100030078006a
:10549400c24990008381fb00524990000281fb00c5
:1054a4004811dd0003017100820078003e01900084
:1054b400ce019000021f40000397480022003700ed
:1054c4003e009000ce00900062015000e081580040
:1054d4002e009000106090000080fb00010020006e
:1054e400009ab90004027800028bb90086027800a1
:1054f400050242000010b800010242008400780056
:105504002e029000e44a90000583fb00f44a9000c8
:105514008582fb00c82add008682720005017800be
:10552400845290008582fb00145290000482fb0098
:105534004822dd000502720084017800021f400049
:1055440003974800000000001e00be000080fa001f
:10555400000006000800fa00200798006147980040
:105564000040eb003cecb7006e4090008080fb00f4
:1055740080fd2f0000806000e00f50000400320026
:10558400f0c1b3003cecb7000080eb0039003700f9
:105594002e00900040109000100798002e009000fc
:1055a40080189000701090002e019000101998003f
:1055b400211998000e80e800800078002e009000e9
:1055c400b9fa0700000f78001e007800e00f5000c1
:1055d40004003a00b0c1b3003cecb7000080eb001b
:1055e400240037001e007800304890000080fb0043
:1055f40068006000e00f500004003200f0c1b30006
:105604003cecb7000080eb001a0037002e0090003d
:105614006010900070006000e00f5000060032003f
:105624006e4090000044a0008080fb002e0090009b
:1056340061109800040037006e4090008080fb00e9
:105644002e009000611098000e80e8008000780021
:105654002e009000a3f40700e04f500004003a002d
:1056640090c0b3003cecb7000080eb0001003700b1
:105674000000eb000080fa00000006002400fa009d
:10568400600f9800710f9800021798001317980084
:10569400fe0890000e1090000088b9000000780009
:1056a40001002000008fbe006e08900020079800c3
:1056b4000000eb00300798000000eb00100f98008a
:1056c4001e1090003008900061006000e00f500050
:1056d40006003a00d0c1b3003cecb70090002000b3
:1056e400300798000000eb00430137001e00be00a5
:1056f400e00f5000e08f580002003a000000eb0079
:105704003d013700930c0700e04f500006003200c3
:1057140080c1b3003cecb700800120003007980042
:105724000000eb00340137000040eb0056edb700f9
:105734001e10900090007800310f98001e10900009
:1057440060019000420798001e10900070019000c4
:105754008009900052079800630798001e1090007b
:10576400c0009000300090000001be003e08900090
:1057740008ff0700400f9800510f98001e1090007a
:1057840050009000010020004e099000de099000b6
:105794000200400083804800400f9800510f980099
:1057a400716a80001e109000808f50000c0032003f
:1057b40054cdbf00e04f5000070032001001070035
:1057c400e04f50000400320090c0b3003cecb7003e
:1057d4000000eb00080137009e119000736a8800f6
:1057e400826a8000936a80004e089000de08900070
:1057f400800f5100818f59002100320054cdbf0029
:10580400e04f500007003200fd000700e04f500059
:105814000400320090c0b3003cecb7000000eb0081
:10582400f50037000040eb0056edb7003e0890004d
:10583400104178008280fb00104090000080fb0043
:105844004800dd0001007000000178004e0890005f
:10585400de089000e0090700e04f500004003a0021
:10586400b0c1b3003cecb7008000200030079800c2
:105874004e089000de089000806a8800916a8800d3
:105884001e10900010099000a00990007207980063
:10589400030f9800bf0037005e019000ee019000f6
:1058a4007e0090008e089000800f5100818f590077
:1058b40004003a001e109000b00890000120a000df
:1058c400310898004e0090006101b8003e0a900033
:1058d400845a90000583fb00945a90008582fb0053
:1058e400c82add008682720005007800a45a900060
:1058f4008582fb00345a90000482fb004822dd00bc
:105904000502720084007800800f5100818f5900d5
:1059140070003a0010c0b3004057980054cdbf0047
:10592400e04f500007003200b5000700e04f500080
:105934000400320090c0b3003cecb7000000eb0060
:10594400ad0037000000eb00400798001e109000e7
:10595400500090008000e8001e1090005100980054
:105964001e109000d00090003e089000106090003f
:105974000080fb00808f500016003a001e1090003b
:105984008000eb00510098001e1090003008900039
:1059940064006000e00f5000080032008040eb001b
:1059a4001e10900044f707000080fb0030079800a9
:1059b4000040eb004057980006003700120020001a
:1059c400030020001e10900083ee07000080fb00ff
:1059d400300798003e009000f50f500004003a0094
:1059e40050c1b3003cecb7000000eb00820037006c
:1059f4003e009000e00f500036003a001e10900068
:105a0400c0009000300090000001be003e089000ed
:105a140060fe0700400f9800510f98001e10900080
:105a240050009000010020004e099000de09900013
:105a34000200400083804800400f9800510f9800f6
:105a44009e119000736a88004e509000e04f500001
:105a54001c0032003e089000104178008280fb0058
:105a6400104090000080fb004800dd000100700041
:105a7400000178004e089000de08900056090700e7
:105a8400e04f50000a003a00b0c1b3003cecb7004c
:105a940080002000300798000080eb008080eb003d
:105aa400806a8800916a88000000eb005200370089
:105ab4004e089000de089000806a8800916a880091
