:020000040000fa
:080000000002040000000000f2
:020000040000fa
:10000800f8020000f8020000f8020000f802000000
:10001800f8020000f8020000f8020000f8020000f0
:10002800f8020000f8020000f8020000f8020000e0
:10003800f8020000f8020000f8020000f8020000d0
:10004800f8020000f8020000f80200009002000028
:10005800f8020000f8020000f8020000f8020000b0
:10006800f8020000f8020000f8020000f8020000a0
:10007800f8020000f8020000f8020000f802000090
:10008800f8020000f8020000f8020000f802000080
:10009800f8020000f8020000f8020000f802000070
:1000a800f8020000f8020000f8020000f802000060
:1000b800f8020000f8020000f8020000f802000050
:1000c800f8020000f8020000f8020000f802000040
:1000d800f8020000f8020000f8020000f802000030
:1000e800f8020000f8020000f8020000f802000020
:1000f800f8020000f8020000f8020000f802000010
:10010800f8020000f8020000f8020000f8020000ff
:10011800f8020000f8020000f8020000f8020000ef
:10012800f8020000f8020000f8020000f8020000df
:10013800f8020000f8020000f8020000f8020000cf
:10014800f8020000f8020000f8020000f8020000bf
:10015800f8020000f8020000f8020000f8020000af
:10016800f8020000f8020000f8020000f80200009f
:10017800f8020000f8020000f8020000f80200008f
:10018800f8020000f8020000f8020000f80200007f
:10019800f8020000f8020000f8020000f80200006f
:1001a800f8020000f8020000f8020000f80200005f
:1001b800f8020000f8020000f8020000f80200004f
:1001c800f8020000f8020000f8020000f80200003f
:1001d800f8020000f8020000f8020000f80200002f
:1001e800f8020000f8020000f8020000f80200001f
:0801f800f8020000f80200000b
:020000040000fa
:10020800f8020000f8020000f8020000f8020000fe
:10021800f8020000f8020000f8020000f8020000ee
:10022800f8020000f8020000f8020000f8020000de
:10023800f8020000f8020000f8020000f8020000ce
:10024800f8020000f8020000f80200009002000026
:10025800f8020000f8020000f8020000f8020000ae
:10026800f8020000f8020000f8020000f80200009e
:10027800f8020000f8020000f8020000f80200008e
:10028800f8020000f8020000f8020000f80200007e
:10029800f8020000f8020000f8020000f80200006e
:1002a800f8020000f8020000f8020000f80200005e
:1002b800f8020000f8020000f8020000f80200004e
:1002c800f8020000f8020000f8020000f80200003e
:1002d800f8020000f8020000f8020000f80200002e
:1002e800f8020000f8020000f8020000f80200001e
:1002f800f8020000f8020000f8020000f80200000e
:10030800f8020000f8020000f8020000f8020000fd
:10031800f8020000f8020000f8020000f8020000ed
:10032800f8020000f8020000f8020000f8020000dd
:10033800f8020000f8020000f8020000f8020000cd
:10034800f8020000f8020000f8020000f8020000bd
:10035800f8020000f8020000f8020000f8020000ad
:10036800f8020000f8020000f8020000f80200009d
:10037800f8020000f8020000f8020000f80200008d
:10038800f8020000f8020000f8020000f80200007d
:10039800f8020000f8020000f8020000f80200006d
:1003a800f8020000f8020000f8020000f80200005d
:1003b800f8020000f8020000f8020000f80200004d
:1003c800f8020000f8020000f8020000f80200003d
:1003d800f8020000f8020000f8020000f80200002d
:1003e800f8020000f8020000f8020000f80200001d
:0803f800f8020000f802000009
:020000040000fa
:10040000ef8020000e7f22000e0188000000000017
:100410000c000700e061200001002000110007002f
:10042000000020000000e000020032000000020096
:100430000000000028040200000000000040da0074
:100440000000fe004440a900000820000000e00079
:100450000300320000002000a00188004440a800f2
:100460000000060091018800800078000000eb0089
:1004700015003700e280400032a0b4009101ba00bc
:10048000e280400032a0b4009102ba00e280400055
:1004900032a0b4000002eb00472bde00f507b200eb
:1004a000602ce10004003a000059eb008301e900f0
:1004b000fdff3e00040037006128e100010032002a
:1004c0000082eb00040007001101ba000200e00006
:1004d000e8ff3a00000006003159ba008301e90044
:1004e0000c0032002159ba008301e90008003200f3
:1004f0000400e00003003a00e280400032a0b400b3
:10050000f5ff370011d9ba008301e900faff3a007c
:100510008100e800e180400032a0b4000000060045
:10052000809fbe00821f78000000fa008560a9004d
:100530001011800062006000e00f500001003200e6
:100540002222a90061408000301180000040780024
:100550000280200002814000004978000100e8008c
:1005600060408800604080008000e900008020003a
:100570000080400010407800ea4f50000300320035
:1005800060408000ea0f500002003a0010c0b30043
:100590000ae8b7000080fa004f0178004f00be0063
:1005a000004006000200fa000000eb00000f780097
:1005b00005003700008020009e0040000040eb0056
:1005c000804878001e0fe800604080009e007800a0
:1005d000808f5000f7ff35000040eb000ae8b700bd
:1005e0000000eb00604088000080fa000000060078
:1005f0000040da000000fe000800fa001007980032
:1006000021079800320798003e00900040118800b2
:100610001e009000001188002e009000101188002c
:100620000200370030118000004f78001011800068
:10063000e10060000000eb00808f5000f9ff3a00fd
:100640008560a9000080fa00000006000400fa009e
:10065000100798001e009000000f78000011800025
:10066000e600600060002000808f500021003a000a
:100670000d00370000000000111180000020200054
:10068000808060000000eb00808f5000faff3a008d
:100690001e00900010007800201188001e009000bd
:1006a0000080e800100798001e009000900078007d
:1006b0000000eb00808f5000eeff3a00130037007f
:1006c00000000000111180000020200080806000e8
:1006d0000000eb00808f5000faff3a001e00780007
:1006e000104078000000fb00201188001e0fe80079
:1006f00001003700000000001e00780090407800e4
:100700000040eb0080cf5000edff3a000080fa007f
:10071000000006000200fa00000f780000118000bf
:10072000e600600060002000808f500003003a0067
:100730001e0078002011880003003700f00f200011
:100740001e006000201188000080fa0000000600f2
:020000040000fa
:100750004e6500007875000073200000436f0000b4
:100760006e740000726f00006c200000426f000089
:1007700061720000642000004f6e00006c69000090
:100780006e6500002e2e00002e0a00004669000053
:10079000726d000077610000726500002056000055
:1007a00065720000736900006f6e00002031000068
:1007b0002e3000000a56000065720000626f0000d3
:1007c00073650000204500006e610000626c00004f
:1007d000656400000a0a000000520000494700005a
:1007e000485400000a0000004c4500004654000038
:1007f0000a0000004e450000555400005241000020
:100800004c0a0000004f000066660000736500009f
:1008100074200000636c00006561000072650000d8
:10082000642c000020500000574d000020640000a0
:1008300069730000616200006c65000064000000e4
:100840004e6f0000206300006d6400000a0000008d
:020000040000fa
:100850000200fa000000eb00000f7800990007008a
:10086000b1000700cd000700803a280077ff07009d
:1008700001003700000000000ac8bf00e04f500030
:10088000fcff3200018020009140780020c5b300b9
:1008900080cf500011003a00d03e28006bff0700c7
:1008a000b0f32000000c8800210c800080ff2f0096
:1008b000008060006000b300200c8800b0f32000ce
:1008c000300c8800510c800080ff2f0000806000f9
:1008d0006000b300500c88007800370001802000d1
:1008e00091407800c0c4b30080cf500011003a009e
:1008f000403f280055ff070030832000000c88008f
:10090000210c800080ff2f00008060006000b30099
:10091000200c880030832000300c8800510c8000af
:1009200080ff2f00008060006000b300500c880042
:10093000620037000180200091407800e0c4b300dd
:1009400080cf500011003a00a03f28003fff070071
:1009500070bb2000000c8800210c800080ff2f005d
:10096000008060006000b300200c880070bb200095
:10097000300c8800510c800080ff2f000080600048
:100980006000b300500c88004c003700018020004c
:1009900091407800b0c2b30080cf500017003a00f9
:1009a0001e0fe8001e0078006500b9008000780086
:1009b00070bb200000804000000c88001e00780002
:1009c0006500b9008000780070bb20000080400006
:1009d000300c8800010320001e8040004dff0700fe
:1009e0000000000011118000001020000080600055
:1009f000e00f5000fbff3a0030003700018020007c
:100a000091407800d0c2b30080cf500017003a0068
:100a10001e0fe9001e0078006500b9008000780014
:100a200070bb200000804000000c88001e00780091
:100a30006500b9008000780070bb20000080400095
:100a4000300c8800010320001e80400031ff0700a9
:100a500000000000111180000010200000806000e4
:100a6000e00f5000fbff3a00140037000180200027
:100a70009140780030c4b30080cf50000d003a00a0
:100a8000210c800080ff2f0000806000200c880077
:100a9000510c800080ff2f0000806000500c880007
:100aa0000000eb00000f780030402800e7fe070050
:100ab0000200370000422800e4fe0700b9fe0700ec
:100ac0006dff37000000fa00113a8000f0ff2800a7
:100ad000808060000000210000807000103a8800d3
:100ae000113a8000f08f2f008080600000102000fd
:100af00000807000103a8800213a8000f08f2f00ab
:100b000000806000203a8800213a8000f0ff280031
:100b100000806000203a88000080eb0060198800a7
:100b20000080fa00000006000800fa00800028009b
:100b300001002000008fbe000040200001002000c6
:100b40002007980031079800ae0090001e00780042
:100b500042042000a8fe07002135800000fe2f007f
:100b600000806000e000b30020358800613680001e
:100b7000f00f2e00808060000030200000807000a8
:100b8000603688009560a8000080fa00000006002a
:100b90000000fa000080fa00000006000000fa00e1
:100ba00011e1a80081088000f0fc2f0000806000a7
:100bb0000040a000800888001061a9001021a90051
:100bc000f07621001008880070bb2000100c88000f
:100bd0008461a900210c800080ff2f00008060004c
:100be000200c880051368000f00f2e0080806000bd
:100bf000002021000080700050368800f07621002f
:100c00006008880070bb2000400c88008a61a90041
:100c1000510c800080ff2f0000806000500c880085
:100c20006136800000fe2f00008060003001b300bc
:0c0c3000603688000080fa00000006001a
:020000040000fa
:100c3c00000800000a000000000000000a08000084
:100c4c000400000002000000000000000000000092
:040c5c000000000094
:020000040000fa
:020000040001f9
:0457f800ae79000086
:020000040000fa
:020000040001f9
:0457fc003f3f00002b
:00000001FF
